:100000000C94B0020C94AD160C94D8020C94D80247
:100010000C94D8020C94D8020C94DA170C94D802E1
:100020000C94D8020C94D8020C94D8020C94D802E8
:100030000C94D8020C94D8020C94D8020C94D802D8
:100040000C94D8020C94D8020C94D8020C94D802C8
:100050000C94D8020403090444034E004E005300DC
:10006000540055002000320032002D0056004D0093
:10007000760020004B0068006100630068006500A6
:100080006E006B006F00760020004F002E004900CC
:100090002E002000320030003200340048035400AB
:1000A00065006D00700065007200610074007500ED
:1000B00072006500200063006F006E007400720023
:1000C0006F006C0020006F006600200070006F0061
:1000D0007700650072002000540052004D002D0092
:1000E00030003100160373002F006E002000300036
:1000F00030003000300030003100120110010000EB
:100100000008C016DF0500010102030109021B00FF
:1001100001010080320904000000030000000921F1
:100120000101000122160000000000F0F8FC1C1C78
:100130001C1C1C1CFCF8F000000000FFFFFFE0701E
:10014000381C0E07FFFFFF00000000070F1F1C1CDC
:100150001C1C1C1C1F0F070000000000C0E0F078F2
:10016000FCFCFC000000000000000000000000009B
:10017000FFFFFF0000000000000000001C1C1C1C12
:100180001F1F1F1C1C1C1C0000000070787C1C1C06
:100190001C1C1C1CFCF8F00000000000000080C0CB
:1001A000E070381C0F0703000000001C1E1F1F1DFD
:1001B0001C1C1C1C1C1C1C0000000070787C1C1CDF
:1001C0001C1C1C1CFCF8F0000000000000000000DB
:1001D0001C1C1C1CFFF7E300000000070F1F1C1C69
:1001E0001C1C1C1C1F0F070000000000E0FCFC1C76
:1001F000000000FCFCFC00000000003F3F3F3838DE
:10020000383838FFFFFF3800000000000000000011
:100210000000001F1F1F0000000000FCFCFC1C1C55
:100220001C1C1C1C1C1C1C000000000F0F0F0E0EC1
:100230000E0E0E0EFEFCF800000000070F1F1C1C27
:100240001C1C1C1C1F0F0700000000F0F8FC1C1CED
:100250001C1C1C1C7C787000000000FFFFFF1C1C95
:100260001C1C1C1CFCF8F000000000070F1F1C1CCD
:100270001C1C1C1C1F0F07000000003C3C3C1C1CED
:100280001C1C1C1CFCFCFC0000000000000000000A
:10029000F0F8FC0E07030100000000000000000061
:1002A0001F1F1F0000000000000000F0F8FC1C1CD5
:1002B0001C1C1C1CFCF8F000000000E3F7FF1C1CD9
:1002C0001C1C1C1CFFF7E300000000070F1F1C1C78
:1002D0001C1C1C1C1F0F0700000000F0F8FC1C1C5D
:1002E0001C1C1C1CFCF8F000000000070F1F1C1C4D
:1002F0001C1C1C1CFFFFFF00000000070F1F1C1C24
:100300001C1C1C1C1F0F0700000000FCFCFC000054
:1003100000000000FCFCFC000000000F7FFFF080EC
:10032000000080F0FF7F0F00000000000003071FA7
:100330003C3C1F0703000000000000FCFCFC1C1CF0
:100340001C1C1C1C1CF8F000000000FFFFFF1C1C04
:100350001C1C1C1C1C0F07000000001F1F1F00009E
:1003600000000000000000000000F0F8FC1C1C1C55
:100370001C1C1C1C7C7870000000070F1F1C1C1C20
:100380001C1C1C1CFCF8F0000000070F1F1C1C1C90
:100390001C1C1C1C1F0F0700000000F0F8FC1C1C9C
:1003A0001C1C1C1C7C787000000000FFFFFF00007C
:1003B0000000000000000000000000070F1F1C1CD0
:1003C0001C1C1C1C1F0F0700000000F0F8FC1C1C6C
:1003D0001C1C1CFCF8F00000000000070F1F1C1C78
:1003E0001C1C1C1F0F070000000000000000000084
:1003F00000000000000000000000000000000000FD
:100400000000000000000000000000081C1C1C1C74
:100410001C1C1C1C1C1C080000000000000000002C
:100420000000000000000000000000FCFCFC0000D8
:1004300000000000FCFCFC00000000FFFFFF0000CB
:1004400000000000FFFFFF000000000103070E1C7A
:1004500018180C0E070301FFFF000000000000FF4A
:10046000FF000078FEC683838383061E180000FF0A
:10047000FFC3C3C3C3E77E1C0000000070F070021E
:10048000FF02B8783800003F7F60C0C0C0C0607F06
:100490003F0000187860C1C1C1C1637F1E0000FF2A
:1004A000FFC0C0C0C0E37F1E00000000000162F476
:1004B000FFF1600000000003030303FFFF030303D9
:1004C000030000FFFF83838383C7FE380000FFFF24
:1004D0000E1C38381C0EFFFF00008080808080805A
:1004E00080800000FCFE030383C3E373FEFC000076
:1004F000000C0EFFFF0000000000000000000000E4
:10050000000000FFFF000000000000FFFF010101EC
:10051000010100000000FFFF000000000000FFFFDD
:100520000000010101010101010100003F7FCEC770
:10053000C3C1C0C07F3F0000C0C0C0FFFFC0C0C07B
:10054000000000000000000600FF0901A1011500E5
:1005500026FF00750895340900B20201C000DA02D6
:1005600011241FBECFE5D4E0DEBFCDBF10E0A0E672
:10057000B0E0EEECF5E302C005900D92A637B107AE
:10058000D9F711E0A6E7B0E001C01D92A932B1078A
:10059000E1F715E0C0E6D5E004C02297FE010E9415
:1005A0009C1ACE35D107C9F70E94E2020C94E51AD5
:1005B0000C9400008EEA90E068E370E043E00E9453
:1005C000481608952F923F924F925F926F927F92BA
:1005D0008F929F92AF92BF92CF92DF92EF92FF9253
:1005E0000F931F93DF93CF93CDB7DEB7C55BD0409A
:1005F0000FB6F894DEBF0FBECDBF80E29EE42CE2C2
:1006000031E0F9013197F1F70197D9F78AE790E0E6
:1006100060E070E041E050E00E94A01A81E090E0CC
:100620000E94B01A80937B0082E090E00E94B81A8A
:1006300090937D0080937C008EE790E064E070E012
:1006400044E050E00E94A01A82E890E068E070E088
:1006500044E050E00E94A01A86E890E06CE070E070
:1006600044E050E00E94A01A80E190E00E94B81A95
:100670009093A3008093A20082E190E00E94B81AB8
:100680009093A5008093A40084E190E00E94B81AA2
:100690009093A7008093A60086E190E00E94B81A8C
:1006A0009093A9008093A80088E190E00E94B81A76
:1006B0009093AB008093AA008AE190E00E94B81A60
:1006C0009093AD008093AC008AE790E00E94041202
:1006D0008E010F5F1F4FC8010E94C507CE0105960E
:1006E000B8010E945407B2E0EB2EF12CEC0EFD1E77
:1006F000C701B8010E94C211C7010E940E1180ED0E
:1007000097E02CE231E0F9013197F1F70197D9F741
:10071000CE0102960E94D710CE0184966BE370E062
:1007200042E00E947A0ACE018D5B9F4F68E370E041
:1007300044E00E947A0ACE0109960E940E0BCE0177
:1007400042960E940E0BCE014B960E940E0B80909B
:10075000A6009090A70020917C0030917D00C055AC
:10076000DF4F39832883C05BD040DE01AC59BF4FD7
:10077000EAE7F0E084E301900D928150E1F7FE0199
:10078000EE59FF4F3281C155DF4F3883CF5AD040E9
:100790008381C255DF4F8883CE5AD040A481B58172
:1007A000C455DF4FB983A883CC5AD0408681978146
:1007B000A085B185C855DF4F88839983AA83BB8301
:1007C000C85AD04082859385A485B585CC55DF4F26
:1007D00088839983AA83BB83C45AD0408685978532
:1007E000A089B189C056DF4F88839983AA83BB83D0
:1007F000C05AD040A0A9B1A9C256DF4FB983A8837F
:10080000CE59D04022A933A9C456DF4F398328835B
:10081000CC59D04084A995A9C656DF4F99838883C7
:10082000CA59D040A6A5B7A5C856DF4FB983A8833B
:10083000C859D040A2E0CA2ED12CCC0EDD1EC60174
:10084000B4010E94F00E8E010B5F1F4FC8010E9481
:10085000A907882381F0C8010E9469077B018C01E8
:100860000E941E1A0E94D9189B01AC01C601B90151
:100870000E946B0C03C0C6010E94E80D6091A600A7
:100880007091A7008EEA90E00E944514C801B7015C
:100890000E94D9189B01AC018EEA90E0B9010E9438
:1008A0005414CE01029660917B000E943D1140914C
:1008B0007E0050917F0060918000709181008EEAEF
:1008C00090E00E943B14409182005091830060911F
:1008D0008400709185008EEA90E00E94351440916A
:1008E00086005091870060918800709189008EEA9F
:1008F00090E00E942F146091AA007091AB008EEAE4
:1009000090E00E9441146091AC007091AD008EEABD
:1009100090E00E9458146091A8007091A9008EEA9E
:1009200090E00E945C140E940D08F8948D989598B0
:1009300088EB9BE02CE231E0F9013197F1F7019768
:10094000D9F78D9A959A78948B98CC54DF4F9982E9
:100950008882C45BD040CE54DF4F99828882C25BCC
:10096000D040F2E0AF2EB12CAC0EBD1EEBE16E2EEE
:10097000712C6C0E7D1E72E1272E312C2C0E3D1E2B
:1009800065E0462E512C4C0E5D1E839B03C08D9A54
:10099000959A02C08D9895980E9414088091FA004B
:1009A0008823A1F0839908C0C5010E946D101092A0
:1009B000FA001092FB000AC08091FB00882331F4FA
:1009C000C5010E94A01081E08093FB0080917C0013
:1009D00090917D00C055DF4F28813981C05BD040A8
:1009E0002817390709F01BC20AC080917C0090913A
:1009F0007D00C055DF4F99838883C05BD0408091D4
:100A00007A008823B1F0C5010E94060C882389F082
:100A100060917C0070917D0080E090E028EE33E0F2
:100A200040E050E00E94671AAB01BC01C3010E9484
:100A30001C0B80917A00882309F4FAC1C5010E9439
:100A4000060C882309F0F4C1DD242091A200309126
:100A5000A3000091A4001091A500CE01849666EA3F
:100A600070E04D2D59EFE52E50E0F52E0E944C0917
:100A7000D1942091A2003091A3000091A400109184
:100A8000A500CE018D5B9F4F66EA70E04D2D0E9460
:100A90004C09C5010E94060C8823E9F48091F900F5
:100AA0008823C9F0C5010E949C111092F900C3016E
:100AB0000E94330B60917C0070917D0080E090E09B
:100AC00028EE33E040E050E00E94671AAB01BC0121
:100AD000C3010E941C0BC3010E94360B882319F02E
:100AE000C5010E94771180917A00C155DF4F98812E
:100AF000CF5AD040981709F09EC180917B00C25513
:100B0000DF4FA881CE5AD040A81709F094C1809138
:100B10007C0090917D00C455DF4F28813981CC5AEB
:100B2000D0402817390709F086C1C855DF4F6881C2
:100B300079818A819B81C85AD04020917E00309172
:100B40007F0040918000509181000E946D188823A1
:100B500009F071C1CC55DF4F688179818A819B8111
:100B6000C45AD0402091820030918300409184008B
:100B7000509185000E946D18882309F05CC1C05611
:100B8000DF4F688179818A819B81C05AD040209152
:100B900086003091870040918800509189000E9422
:100BA0006D18882309F047C18091A8009091A90091
:100BB000C256DF4FA881B981CE59D040A817B907D6
:100BC00009F039C18091AA009091AB00C456DF4F63
:100BD00028813981CC59D0402817390709F02BC119
:100BE0008091AC009091AD00C656DF4FA881B981CD
:100BF000CA59D040A817B90709F01DC18091A600B5
:100C00009091A700C856DF4F28813981C859D0403C
:100C10002817390709F00FC19DC0C5010E949C111A
:100C200040917E0050917F00609180007091810022
:100C30008EEA90E00E943B14409182005091830024
:100C400060918400709185008EEA90E00E943514D6
:100C500040918600509187006091880070918900D2
:100C60008EEA90E00E942F146091A6007091A70078
:100C70008EEA90E00E9445146091AA007091AB004A
:100C80008EEA90E00E9441146091AC007091AD003A
:100C90008EEA90E00E9458146091A8007091A9001B
:100CA0008EEA90E00E945C148AE790E060E070E0D9
:100CB00041E050E00E94BE1A81E090E060917B002C
:100CC0000E94CE1A60917C0070917D0082E090E0DD
:100CD0000E94DF1A8EE790E064E070E044E050E0AC
:100CE0000E94BE1A82E890E068E070E044E050E0C4
:100CF0000E94BE1A86E890E06CE070E044E050E0AC
:100D00000E94BE1A6091A2007091A30080E190E061
:100D10000E94DF1A6091A4007091A50082E190E02A
:100D20000E94DF1A6091A8007091A90086E190E00E
:100D30000E94DF1A6091AA007091AB0088E190E0F8
:100D40000E94DF1A6091AC007091AD008AE190E0E2
:100D50000E94DF1A8091A6009091A700CC54DF4F2B
:100D6000A881B981C45BD040A817B90709F072C047
:100D7000C1010E94360B882341F06091A60070915A
:100D8000A70084E190E00E94DF1A8EEA90E0B201B1
:100D90000E94D3148E01075F1F4FC80148EE53E035
:100DA00060E070E00E941C0BC8010E94360B882393
:100DB00039F48091A6009091A7008816990609F150
:100DC000C2010E94A907882371F0C2010E9469072D
:100DD0000E941E1A0E94D9189B01AC01C501B901DD
:100DE0000E946B0C03C0C5010E94E80D6091A60033
:100DF0007091A700C5010E94F00E8090A60090900F
:100E0000A7006091A6007091A700CE54DF4F288103
:100E10003981C25BD0402617370789F5B6CDC301AB
:100E20000E94330B80917A00882309F0DECDE7CD54
:100E3000DD24D3940ACE8AE790E00E940412C50113
:100E400060917B000E943D1180917A00882309F017
:100E5000E7CEE3CEC1010E94330BC10140E157E26E
:100E600060E070E00E941C0B8091A6009091A700AA
:100E7000CC54DF4F99838883C45BD04086CF8EEA01
:100E800090E00E944514A091A600B091A700CE5416
:100E9000DF4FB983A883C25BD04077CDFC01A39A12
:100EA000AB9A718360830895FC01A39AAB9A718316
:100EB00060830895AB980895AB9A0895FC01228150
:100EC000338185E0369527958A95E1F73370C9011E
:100ED0000895AF92BF92CF92DF92EF92FF920F935D
:100EE0001F93FC01E280F380B70125E076956795BA
:100EF0002A95E1F780E090E00E9405195B016C0102
:100F000093E0F694E7949A95E1F7F3E0EF22FF245B
:100F100000E010E0C801B7010E94051920E030E0B0
:100F200048EC51E40E94BB1920E030E048EC52E468
:100F30000E9471189B01AC01C601B5010E940918FD
:100F40001F910F91FF90EF90DF90CF90BF90AF90E7
:100F500008950F931F938C01AB98FC0180819181C0
:100F60000E94E007F80193838283AB9A20E033E08C
:100F7000969587953A95E1F79F708F5F9F4009F0AE
:100F800021E0822F1F910F910895D79ADF9AA2989E
:100F9000AA9AD69ADE9A089580E020E030E0880F81
:100FA000DF98000000009A99816000000000DF9A3D
:100FB000000000002F5F3F4F2830310581F7089572
:100FC00020E030E080E090E0220F331FDF98000047
:100FD00000009A99216000000000DF9A00000000E4
:100FE00001968031910581F7C901089580E090E074
:100FF00067FD02C0DE9801C0DE9A00000000DF98A5
:1010000000000000DF9A0000000001968830910582
:1010100011F0660FEDCFDE9A089585B7826085BF27
:101020008BB780648BBF08951F93CF93DF9360913C
:101030001601635067FDC4C080911201CCE0D0E07E
:10104000C81BD109C450DF4F809118018D3209F0BF
:10105000A4C0683009F0B2C083EC809319018AE51E
:1010600080936000109226018881807641F0CE0145
:101070000E94FC12282F8F3F09F47EC084C09A8101
:10108000109222018981882321F41092230122E009
:101090006CC0853019F49093140166C0863009F055
:1010A00054C08B81813041F48AEF90E09093250108
:1010B0008093240122E145C0823041F48CE091E02C
:1010C00090932501809324012BE13BC0833021F5CF
:1010D0008A81882341F484E590E0909325018093F0
:1010E000240124E02EC0813041F488E590E0909303
:1010F00025018093240124E424C0823041F48CE94A
:1011000090E0909325018093240128E41AC0833055
:10111000B9F484EE90E00EC0813241F48EE191E0AA
:10112000909325018093240129E00BC0823241F481
:1011300087E495E0909325018093240126E101C086
:1011400020E080E4809326011EC0883021F421E055
:1011500085E191E00CC0893019F49093150104C029
:101160008A3011F421E001C020E082E291E0909306
:1011700025018093240107C0888187FD2E8180E8A6
:101180008093260106C08F81882319F48E818217EF
:1011900008F0822F8093610011C08091260187FFA3
:1011A0000DC0CE010E94D1128F3F21F48EE18093B9
:1011B000600004C0882311F01092610010921601A3
:1011C0008091600084FF5AC0809161008F3F09F4D4
:1011D00055C0182F893008F018E0811B80936100FA
:1011E0008091190198E8892780931901112399F1B9
:1011F0008091260187FF09C08AE191E0612F0E945A
:101200001613182F8930A0F526C0209124013091A3
:10121000250186FF0DC0AAE1B1E080E090E0F90170
:10122000E80FF91FE491ED9301961817C1F708C074
:10123000912FD901EAE1F1E08D9181939150E1F78D
:101240001150812F90E01F5F0196820F931F9093A2
:101250002501809324018AE191E0612F0E94A91663
:10126000612F6C5F6C3041F08FEF8093610004C0A0
:101270008FEF809361006EE16093600094E180B332
:10128000847131F49150D9F7109214011092130126
:10129000DF91CF911F9108959F92AF92BF92CF920D
:1012A000DF92EF92FF920F931F93CF93DF93EC01A6
:1012B0005B01942E6901E881F981329780812A814E
:1012C00090E0022E02C0959587950A94E2F780FD82
:1012D000F9C08B81882309F0F5C081E08B83CE01B2
:1012E000049642E350E060E070E0E9C0808190E065
:1012F00002C0959587952A95E2F780FDE7C0CE015B
:1013000004960E94360B882309F4E0C0E114F1042E
:1013100019F081E0F701808319146CF4892D992765
:1013200087FD9095081B190BF501808191810817A5
:10133000190778F419C09920B9F0892D992787FDEC
:101340009095C81AD90AF501808191818C159D0567
:1013500058F0292D332727FD3095F50180819181A3
:10136000820F931F91838083CE010D9648EE53E048
:1013700060E070E0A4C0E881F981329780812A8121
:1013800090E0022E02C0959587950A94E2F780FFBF
:101390000EC01B82CE0104960E94330BCE010D9627
:1013A0000E94330BCE0146960E94330B97C080817A
:1013B00090E002C0959587952A95E2F780FD8AC056
:1013C000CE010D960E94360B882309F483C0E114E8
:1013D000F10419F081E0F701808319146CF4892D70
:1013E000992787FD9095081B190BF5018081918144
:1013F0000817190778F419C09920B9F0892D992791
:1014000087FD9095C81AD90AF501808191818C15C4
:101410009D0558F0292D332727FD3095F501808152
:101420009181820F931F91838083CE01469643C0A2
:10143000E881F9813297808190E00A8002C0959519
:1014400087950A94E2F780FD49C06696CE010E9416
:10145000360B882309F442C0E114F10419F081E04D
:10146000F701808319146CF4892D992787FD9095D5
:10147000081B190BF501808191810817190778F471
:1014800019C09920B9F0892D992787FD9095C81A20
:10149000D90AF501808191818C159D0558F0292D7F
:1014A000332727FD3095F50180819181820F931FAD
:1014B00091838083CE0148EC50E060E070E00E94B0
:1014C0001C0B0CC08B81882309F010CF8B818823E3
:1014D00009F051CF8B81882309F0AACFDF91CF91FA
:1014E0001F910F91FF90EF90DF90CF90BF90AF9042
:1014F0009F900895CF92DF92EF92FF920F931F93E8
:101500007C01D62EC72E042F04960E940E0BC70115
:101510000D960E940E0BC70146960E940E0BD70136
:10152000DC921196CC92119712960C931297ED2D96
:10153000FC2D829121E030E0A90102C0440F551F2B
:101540000A95E2F78A01009508230083ED91FC914A
:101550001197808112960C90129702C0220F331FB0
:101560000A94E2F7822B808313961C921F910F91AD
:10157000FF90EF90DF90CF900895CF92DF92EF929F
:10158000FF920F931F937C01D62EC72E042F049633
:101590000E940E0BC7010D960E940E0BC7014696C6
:1015A0000E940E0BD701DC921196CC9211971296E5
:1015B0000C931297ED2DFC2D829121E030E0A901D2
:1015C00002C0440F551F0A95E2F78A0100950823CF
:1015D0000083ED91FC911197808112960C901297E7
:1015E00002C0220F331F0A94E2F7822B80831396E6
:1015F0001C921F910F91FF90EF90DF90CF90089574
:1016000029B7206129BF2EB521602EBD20EE3EE214
:101610003BBD2ABDFC0110867894089529B720614E
:1016200029BF2EB521602EBD20EE3EE23BBD2ABD76
:10163000FC01108678940895FC018085882391F43C
:1016400044835583668377838091760090917700F9
:10165000A0917800B091790080839183A283B383B5
:1016600081E080870895FC01108608954F925F9273
:101670006F927F928F929F92AF92BF92CF92DF92A2
:10168000EF92FF920F931F93CF93DF93EC01888526
:10169000882309F4A9C088819981AA81BB816090BF
:1016A0007600709077008090780090907900888123
:1016B0009981AA81BB8186159705A805B905A0F473
:1016C00088819981AA81BB812C813D814E815F8176
:1016D00084017301E81AF90A0A0B1B0BE216F306E0
:1016E0000407150708F07DC088819981AA81BB8114
:1016F000681679068A069B0608F076C0288139812B
:101700004A815B81EC80FD800E811F815701680159
:10171000EE24FF248701E22FE095B32FB095542EDD
:101720005094452E4094A40193018E2E820EF1E038
:101730008E1608F0F0E0EB2FE30FA1E0EB1708F0B6
:10174000A0E09F2E9E0EF1E09E1608F0F0E0AF2B79
:10175000E52DE40FB1E0E51508F0B0E0AE0FF1E0E3
:10176000AE1708F0F0E0BF2B842D850F21E0841523
:1017700008F020E04B2F480F91E0481708F090E068
:10178000292B215081E02F3F08F080E0382F315085
:1017900081E03F3F08F080E0982F915081E09F3F2B
:1017A00008F080E081508117F8F01817D1F49017F5
:1017B000D8F00917B1F43F15B8F0F31691F42E15CF
:1017C00098F0E21671F44D1578F0D41651F4AC157A
:1017D00058F0CA1631F49B1438F0B91411F48A1475
:1017E00018F0188681E001C080E0DF91CF911F9151
:1017F0000F91FF90EF90DF90CF90BF90AF909F90B0
:101800008F907F906F905F904F900895FC01828140
:101810000895DC9907C084E0982F9A95F1F7DC9A37
:101820008A95F1F70895DC9B07C084E0982F9A957C
:10183000F1F7DC988A95F1F7089584E0982F9A954E
:10184000F1F7DB988A95F1F7089584E0982F9A953F
:10185000F1F7DB9A8A95F1F7089584E08A95F1F71C
:10186000DD9888E28A95F1F7DD9A0895CF92DF92AC
:10187000EF92FF920F931F937C01162FD42EC22E4E
:10188000FC018081918162E20E94F607F70180816C
:101890009181612F0E94F607F701808191816D2D62
:1018A0000E94F607F7018081918161E20E94F607AC
:1018B000F701808191816C2D0E94F607F7018081EC
:1018C0009181602F0E94F6071F910F91FF90EF907A
:1018D000DF90CF900895AF92BF92CF92DF92EF92B8
:1018E000FF920F931F93CF93DF937C019B0184E0C2
:1018F000982F9A95F1F7DB988A95F1F7CB0168EE6E
:1019000073E00E94861AD62EC90168EE73E00E9429
:10191000861A64E670E00E94861AC62EC90164E643
:1019200070E00E94861A6AE070E00E94861AB62E65
:10193000C9016AE070E00E94861AA82EC7010E94C1
:10194000130CC70165E047E020E00FE00E94360C71
:10195000C7010E94090CC0EED1E0FE01E95DFE4F17
:10196000E491D7018D919C916E2F0E94F6072196EC
:10197000B2E0C031DB0789F7C7010E94130CC70131
:1019800065E047E020E10FE10E94360CC7010E94AC
:10199000090CC0E1D2E0FE01E95DFE4FE491D70100
:1019A0008D919C916E2F0E94F6072196B2E0C03473
:1019B000DB0789F7C7010E94130CC70165E047E008
:1019C00020E20FE20E94360CC7010E94090CDD20C4
:1019D00069F4C0E0D0E0F7018081918160E00E946D
:1019E000F6072196C033D105B1F716C080E3D89E23
:1019F00080011124C0E0D0E0FE01E00FF11FE95D9D
:101A0000FE4FE491D7018D919C916E2F0E94F607B5
:101A10002196C033D10581F7C7010E94130CC7017D
:101A200065E047E020E30FE30E94360CC7010E9407
:101A3000090CDD2079F4CC2069F4C0E0D0E0F70196
:101A40008081918160E00E94F6072196C033D10524
:101A5000B1F716C080E3C89E80011124C0E0D0E039
:101A6000FE01E00FF11FE95DFE4FE491D7018D917A
:101A70009C916E2F0E94F6072196C033D10581F705
:101A8000C7010E94130CC70165E047E020E40FE4A2
:101A90000E94360CC7010E94090CDD2011F4CC20F5
:101AA00039F080E3B89E80011124C0E0D0E00FC07F
:101AB000BB20B9F7C0E0D0E0F7018081918160E000
:101AC0000E94F6072196C033D105B1F710C0FE0180
:101AD000E00FF11FE95DFE4FE491D7018D919C91DC
:101AE0006E2F0E94F6072196C033D10581F7C701FA
:101AF0000E94130CC70165E047E020E50FE50E9456
:101B0000360CC7010E94090C80E3A89E80011124B5
:101B1000C0E0D0E0FE01E00FF11FE95DFE4FE4916F
:101B2000D7018D919C916E2F0E94F6072196C033AC
:101B3000D10581F7C7010E94130CC70165E047E09A
:101B400020E60FE60E94360CC7010E94090CC0EA8D
:101B5000D2E0FE01E95DFE4FE491D7018D919C91A9
:101B60006E2F0E94F6072196B2E0C03DDB0789F791
:101B7000C7010E94130CC70165E047E020E70FE7AB
:101B80000E94360CC7010E94090CC0E7D2E0FE019A
:101B9000E95DFE4FE491D7018D919C916E2F0E94DB
:101BA000F6072196B2E0C03ADB0789F784E0982F68
:101BB0009A95F1F7DB9A8A95F1F7DF91CF911F9112
:101BC0000F91FF90EF90DF90CF90BF90AF9008956E
:101BD0000F931F93CF93DF93EC0184E0982F9A9596
:101BE000F1F7DB988A95F1F7CE010E94130CCE0134
:101BF00065E047E020E00FE00E94360CCE010E9435
:101C0000090C00EE11E0F801E95DFE4FE4918881D6
:101C100099816E2F0E94F6070F5F1F4F82E00031FF
:101C2000180789F7CE010E94130CCE0165E047E04A
:101C300020E10FE10E94360CCE010E94090C00E168
:101C400012E0F801E95DFE4FE491888199816E2FE1
:101C50000E94F6070F5F1F4F82E00034180789F7D4
:101C6000CE010E94130CCE0165E047E020E20FE2B6
:101C70000E94360CCE010E94090C00ED12E0F80122
:101C8000E95DFE4FE491888199816E2F0E94F607ED
:101C90000F5F1F4F83E00030180789F7CE010E94C5
:101CA000130CCE0165E047E020E30FE30E94360C01
:101CB000CE010E94090C00ED12E0F801E95DFE4F33
:101CC000E491888199816E2F0E94F6070F5F1F4F64
:101CD00083E00030180789F7CE010E94130CCE0173
:101CE00065E047E020E40FE40E94360CCE010E943C
:101CF000090C00ED12E0F801E95DFE4FE4918881E6
:101D000099816E2F0E94F6070F5F1F4F83E000300E
:101D1000180789F7CE010E94130CCE0165E047E059
:101D200020E50FE50E94360CCE010E94090C00ED63
:101D300012E0F801E95DFE4FE491888199816E2FF0
:101D40000E94F6070F5F1F4F83E00030180789F7E6
:101D5000CE010E94130CCE0165E047E020E60FE6BD
:101D60000E94360CCE010E94090C00EA12E0F80134
:101D7000E95DFE4FE491888199816E2F0E94F607FC
:101D80000F5F1F4F82E0003D180789F7CE010E94C8
:101D9000130CCE0165E047E020E70FE70E94360C08
:101DA000CE010E94090C00E712E0F801E95DFE4F48
:101DB000E491888199816E2F0E94F6070F5F1F4F73
:101DC00082E0003A180789F784E0982F9A95F1F796
:101DD000DB9A8A95F1F7DF91CF911F910F910895CA
:101DE000AF92BF92CF92DF92EF92FF920F931F9329
:101DF000CF93DF937C019B0184E0982F9A95F1F7B4
:101E0000DB988A95F1F7CB0168EE73E00E94861AA1
:101E1000D62EC90168EE73E00E94861A64E670E06F
:101E20000E94861AC62EC90164E670E00E94861AD6
:101E30006AE070E00E94861AB62EC9016AE070E07E
:101E40000E94861AA82EC7010E94130CC70162E0E7
:101E500044E020E00FE00E94360CC7010E94090C0C
:101E6000C0E4D2E0FE01E95DFE4FE491D7018D911F
:101E70009C916E2F0E94F6072196B2E0C037DB07D7
:101E800089F7C7010E94130CC70162E044E020E11A
:101E90000FE10E94360CC7010E94090CC0E1D2E09C
:101EA000FE01E95DFE4FE491D7018D919C916E2F6B
:101EB0000E94F6072196B2E0C034DB0789F7C7011C
:101EC0000E94130CC70162E044E020E20FE20E948E
:101ED000360CC7010E94090CDD2069F4C0E0D0E097
:101EE000F7018081918160E00E94F6072196C0335E
:101EF000D105B1F716C080E3D89E80011124C0E05F
:101F0000D0E0FE01E00FF11FE95DFE4FE491D70143
:101F10008D919C916E2F0E94F6072196C033D105BA
:101F200081F7C7010E94130CC70162E044E020E37F
:101F30000FE30E94360CC7010E94090CDD2079F4E2
:101F4000CC2069F4C0E0D0E0F7018081918160E0AD
:101F50000E94F6072196C033D105B1F716C080E381
:101F6000C89E80011124C0E0D0E0FE01E00FF11F07
:101F7000E95DFE4FE491D7018D919C916E2F0E94F7
:101F8000F6072196C033D10581F7C7010E94130CD3
:101F9000C70162E044E020E40FE40E94360CC70170
:101FA0000E94090CDD2011F4CC2039F080E3B89EAA
:101FB00080011124C0E0D0E00FC0BB20B9F7C0E021
:101FC000D0E0F7018081918160E00E94F6072196C0
:101FD000C033D105B1F710C0FE01E00FF11FE95D7C
:101FE000FE4FE491D7018D919C916E2F0E94F607D0
:101FF0002196C033D10581F7C7010E94130CC70198
:1020000062E044E020E50FE50E94360CC7010E9423
:10201000090C80E3A89E80011124C0E0D0E0FE01FD
:10202000E00FF11FE95DFE4FE491D7018D919C9186
:102030006E2F0E94F6072196C033D10581F7C701A4
:102040000E94130CC70162E044E020E60FE60E9404
:10205000360CC7010E94090CC0EAD2E0FE01E95D1E
:10206000FE4FE491D7018D919C916E2F0E94F6074F
:102070002196B2E0C03DDB0789F7C7010E94130C2F
:10208000C70162E044E020E70FE70E94360CC70179
:102090000E94090CC0E7D2E0FE01E95DFE4FE49129
:1020A000D7018D919C916E2F0E94F6072196B2E088
:1020B000C03ADB0789F784E0982F9A95F1F7DB9A0D
:1020C0008A95F1F7DF91CF911F910F91FF90EF90DB
:1020D000DF90CF90BF90AF900895EF92FF920F9353
:1020E000CF93DF937C0184E0982F9A95F1F7DB98EA
:1020F0008A95F1F7C7010E94130CC70160E042E026
:1021000020E50FE70E94360CC7010E94090CC0E0D1
:10211000D0E0F7018081918160E00E94F60721966E
:10212000C036D105B1F784E0982F9A95F1F7DB9A84
:102130008A95F1F7DF91CF910F91FF90EF9008957D
:10214000EF92FF920F93CF93DF937C0184E0982F5F
:102150009A95F1F7DB988A95F1F7C7010E94130C65
:10216000C70160E042E020E50FE70E94360CC7019E
:102170000E94090CC0E0D0E0FE01E95AFB4FE49157
:10218000D7018D919C916E2F0E94F6072196C03643
:10219000D10591F784E0982F9A95F1F7DB9A8A950B
:1021A000F1F7DF91CF910F91FF90EF900895EF92AB
:1021B000FF920F93CF93DF937C0184E0982F9A9541
:1021C000F1F7DB988A95F1F7C7010E94130CC7015C
:1021D00060E042E020E007E40E94360CC7010E9464
:1021E000090CC0E0D0E0FE01E954FB4FE491D701B7
:1021F0008D919C916E2F0E94F6072196C039D105D2
:1022000091F784E0982F9A95F1F7DB9A8A95F1F788
:10221000DF91CF910F91FF90EF900895FF920F9370
:102220001F93CF93DF938C0184E0982F9A95F1F759
:10223000DB988A95F1F7C8010E94090CC0E0D0E054
:1022400088E2F82EF8018081918160E00E94F60713
:102250008F2D8A95F1F72196F4E0C030DF0791F7D2
:1022600084E0982F9A95F1F7DB9A8A95F1F7DF9140
:10227000CF911F910F91FF900895FF920F931F939D
:10228000CF93DF93EC01162F84E0982F9A95F1F706
:10229000DB988A95F1F7CE010E94130C153608F0F1
:1022A00014E60FEF109F800111248881998161E865
:1022B0000E94F60798E2F92E8F2D8A95F1F7C80152
:1022C00064E670E00E94861A888199810E94F60770
:1022D000FA94F1F784E0982F9A95F1F7DB9A8A95B2
:1022E000F1F7DF91CF911F910F91FF900895FF9229
:1022F0000F931F938C0124E0F22E8F2D8A95F1F716
:10230000DB988F2D8A95F1F7C8010E94130CF80114
:10231000808191816EEA0E94F607F801128288E2BC
:102320008A95F1F78F2D8A95F1F7DB9AFA94F1F7F8
:102330001F910F91FF900895FF920F931F938C01AF
:1023400034E0F32E8F2D8A95F1F7DB988F2D8A9547
:10235000F1F7C8010E94130CF801808191816FEAA6
:102360000E94F60781E0F801828388E28A95F1F7FE
:102370008F2D8A95F1F7DB9AFA94F1F71F910F915F
:10238000FF900895EF92FF920F931F93CF93DF93E7
:102390007C018B01D39A84E0982F9A95F1F7DB9812
:1023A000982F9A95F1F7D59A8A95F1F7DD9888E2FA
:1023B0008A95F1F7DD9AD49AC7010E94130CF701B0
:1023C00011830083C2E6D0E008E209C0F7018081F2
:1023D000918169910E94F607802F8A95F1F7F0E0CC
:1023E000C537DF0799F781E0F701828384E0982FF2
:1023F0009A95F1F7DB9A8A95F1F7DF91CF911F91CA
:102400000F91FF90EF900895CF93DF93EC018981B6
:10241000853610F084E6898389818A3010F48AE059
:1024200089838A819B810A9720F48AE090E09B83CC
:102430008A836C817D818E819F8120E030E04AE734
:1024400054E40E94B719181644F480E090E0AAE71B
:10245000B4E48C839D83AE83BF836C817D818E8148
:102460009F8120E030E040E050E00E946D1888231A
:1024700044F480E090E0A0E0B0E08C839D83AE83E4
:10248000BF83688579858A859B8520E030E04AE7AF
:1024900054E40E94B719181644F480E090E0AAE7CB
:1024A000B4E488879987AA87BB87688579858A85F8
:1024B0009B8520E030E040E050E00E946D188823CA
:1024C00044F480E090E0A0E0B0E088879987AA8794
:1024D000BB876C857D858E859F8520E030E04AE74F
:1024E00054E40E94B719181644F480E090E0AAE77B
:1024F000B4E48C879D87AE87BF876C857D858E858C
:102500009F8520E030E040E050E00E946D18882375
:1025100044F480E090E0A0E0B0E08C879D87AE8737
:10252000BF878EA59FA58436910520F484E690E0B0
:102530009FA78EA788A999A90A9720F48AE090E01E
:1025400099AB88AB8AA99BA90A9720F48AE090E00E
:102550009BAB8AAB8AA59BA5895E934020F088EE51
:1025600093E09BA78AA72AA53BA588A599A528172C
:10257000390710F439A728A72AA53BA58CA59DA546
:102580002817390710F43DA72CA728A539A58CA535
:102590009DA58217930710F43DA72CA7DF91CF913B
:1025A0000895CF93DF93EC01509127015523F9F063
:1025B000561708F4652F40912801A42FB0E0A658C3
:1025C000BF4F20E030E007C0FE01E20FF31F808123
:1025D0008D932F5F3F4F2617B8F3460F4093280186
:1025E000852F861B8093270190E0882309F491E0D2
:1025F000892FDF91CF910895FC018091FA00882303
:1026000019F481E08093FA0080818076803261F451
:102610008181813011F0893039F484E3809327017E
:10262000109228018FEF089580E008951F93CF93B3
:10263000DF93EC0180912701162F861708F4182FDD
:1026400080912801882309F08CC08EEA90E00E94D6
:10265000FE1360937E0070937F00809380009093C0
:1026600081008EEA90E00E94F613609382007093DE
:10267000830080938400909385008EEA90E00E940E
:10268000EE13609386007093870080938800909388
:1026900089008EEA90E00E94121460938A00709381
:1026A0008B0080938C0090938D008EEA90E00E94C6
:1026B0001A1460938E0070938F0080939000909313
:1026C00091008EEA90E00E94E6136093920070936E
:1026D000930080939400909395008EEA90E00E947E
:1026E000DA1360939600709397008093980090930C
:1026F00099008EEA90E00E940A1460939A00709309
:102700009B0080939C0090939D008EEA90E00E9435
:10271000D01360939E0070939F008093A0009093CD
:10272000A1008EEA90E00E9426149093A700809367
:10273000A6008EEA90E00E94E2139093A900809395
:10274000A8008EEA90E00E9406149093AB0080935C
:10275000AA008EEA90E00E9422149093AD0080932C
:10276000AC0090912801A92FB0E0A658BF4F20E0FF
:1027700030E007C0FE01E20FF31F8D9180832F5FD1
:102780003F4F2117B8F3910F9093280180912701B3
:10279000811B80932701812FDF91CF911F91089595
:1027A000FC01E95BFF4F2081318142815381B901F6
:1027B000CA010895FC012481358146815781B90100
:1027C000CA010895FC01808591850895FC01228548
:1027D000338544855585B901CA010895FC012685D4
:1027E000378540895189B901CA010895FC012289C0
:1027F000338944895589B901CA010895FC012689A4
:102800003789408D518DB901CA010895FC01828D2F
:10281000938D0895FC01248D358D468D578DB9011A
:10282000CA010895FC0120A131A142A153A1B9011F
:10283000CA010895FC0123A534A545A556A5B901F3
:10284000CA010895FC0183A994A90895FC0167A514
:1028500070A981A992A90E94D918CB010895FC0101
:1028600046875787608B718B0895FC01428B538B91
:10287000648B758B0895FC01468B578B608F718F2D
:102880000895FC01738F628F08950F931F938C013D
:1028900080E090E00E940519F80167A770AB81AB5A
:1028A00092AB1F910F910895FC017183608308958D
:1028B000FC0174AB63AB0895FC01718760870895D8
:1028C0000F931F93CF93DF93EC018C01025C1F4F9A
:1028D0004A8D5B8D60E070E0C8010E941C0BC8014E
:1028E0000E94360B882309F459C02A813B818BA9A9
:1028F0009CA92817390728F42F5F3F4F3B832A8371
:1029000002C01B821A826A817B8180E090E00E9473
:1029100005192C8D3D8D4E8D5F8D0E94B7191816AF
:10292000C4F4E9A5FAA5808138A590E0032E02C081
:10293000959587950A94E2F780FF0BC0208181E08E
:1029400090E002C0880F991F3A95E2F780958223A4
:1029500080836A817B8180E090E00E9405192C8D44
:102960003D8D4E8D5F8D0E946D188823BCF4E9A5C6
:10297000FAA5808108A590E0002E02C09595879564
:102980000A94E2F780FD0AC0208181E090E002C055
:10299000880F991F0A95E2F7282B2083DF91CF91AA
:1029A0001F910F910895AF92BF92CF92DF92EF9255
:1029B000FF920F931F93CF93DF93EC016B018C0178
:1029C0000B5C1F4F4885598560E070E0C8010E948C
:1029D0001C0BC8010E94360B882309F44BC1C601A9
:1029E0000E94A907882309F431C1C6010E94690722
:1029F0009B01AC01C95BDF4F688379838A839B832A
:102A0000C754D0406FA578A989A99AA90E9408182F
:102A100068A379A38AA39BA32E893F89488D598DEA
:102A20000E94BB197B018C016BA77CA78DA79EA779
:102A30006BA97CA980E090E00E9405195B016C0104
:102A4000C801B701A60195010E94B719181624F410
:102A5000ABA6BCA6CDA6DEA66BA97CA980E090E0C3
:102A60000E9405195B016C01D7FAD094D7F8D09475
:102A70006BA57CA58DA59EA5A60195010E946D184C
:102A8000882324F4ABA6BCA6CDA6DEA6AA88BB8864
:102A9000CC88DD88C601B50120E030E040E050E0A0
:102AA0000E94B7191816A4F5C601B50128A139A1CD
:102AB0004AA15BA10E94BB192A853B854C855D8597
:102AC0000E9409187B018C016A877B878C879D8710
:102AD0006BA97CA980E090E00E9405195B016C0164
:102AE000C801B701A60195010E94B719181624F470
:102AF000AA86BB86CC86DD866A857B858C859D858E
:102B000020E030E040E050E00E946D18882344F45B
:102B100080E090E0A0E0B0E08A879B87AC87BD872B
:102B200068A179A18AA19BA12CA13DA14EA15FA181
:102B30000E9408182E853F85488959890E94BB1933
:102B40007B018C016C837D838E839F836BA97CA921
:102B500080E090E00E9405195B016C01C801B7019B
:102B6000A60195010E94B719181624F4AC82BD8203
:102B7000CE82DF826BA97CA980E090E00E940519DB
:102B80005B016C01D7FAD094D7F8D0946C817D8129
:102B90008E819F81A60195010E946D18882324F4DF
:102BA000AC82BD82CE82DF8288A199A1AAA1BBA1FD
:102BB0008CA39DA3AEA3BFA3FE01E95BFF4F608181
:102BC0007181828193810E94D918798368836BA572
:102BD0007CA58DA59EA52A853B854C855D850E949B
:102BE00009182C813D814E815F810E9408187B016C
:102BF0008C016C8F7D8F8E8F9F8F6BA97CA980E05D
:102C000090E00E9405195B016C01C801B701A601A3
:102C100095010E94B719181624F4AC8EBD8ECE8E85
:102C2000DF8E6C8D7D8D8E8D9F8D20E030E040E0BD
:102C300050E00E946D188823ECF480E090E0A0E062
:102C4000B0E08C8F9D8FAE8FBF8F14C080E090E07E
:102C5000A0E0B0E08C8F9D8FAE8FBF8F8BA79CA71D
:102C6000ADA7BEA78A879B87AC87BD878C839D83D2
:102C7000AE83BF83CE010E946014DF91CF911F917C
:102C80000F91FF90EF90DF90CF90BF90AF9008959D
:102C9000DF92EF92FF920F931F938C01F62EE72E97
:102CA000D42EC5960E940E0BC801CE960E940E0B24
:102CB000F801F1A6E2A6D0A6EF2DFE2D229181E02B
:102CC00090E002C0880F991FDA94E2F7282B208346
:102CD0001F910F91FF90EF90DF900895DF92EF9298
:102CE000FF920F931F938C01F62EE72ED42EC596DC
:102CF0000E940E0BC801CE960E940E0BF801F1A6A1
:102D0000E2A6D0A6EF2DFE2D229181E090E002C038
:102D1000880F991FDA94E2F7282B20831F910F91D7
:102D2000FF90EF90DF900895A82FB92F80E090E0FA
:102D300041E050EA609530E009C02D9182279795D7
:102D4000879510F084279527305EC8F36F5FA8F34E
:102D50000895EADF8D939D930895CF93CFB7CF93D6
:102D6000C395849BE9F7849B09C0849B07C0849B1F
:102D700005C0849B03C0849B01C0A1C0DF93C091A8
:102D80001201DD27C450DF4F849B02C0DF91EBCFDF
:102D90002F930F931F9300B32FEF04FB20F94F9352
:102DA0003F9310B34FEF012704FB21F93BE031C003
:102DB0004E7F012F10B3216028C0102F4D7F22605D
:102DC000000000B329C04B7F2460012F000010B326
:102DD0002BC010B3477F28602AC04F7E00B320610C
:102DE0002CC04F7D10B320622FC04F7B00B32064F6
:102DF00032C0422700B349934FEF0000102714FB65
:102E000020F910B31471C9F1297F91F2012704FB55
:102E100021F900B3237F89F2315058F1102714FBB8
:102E200022F910B3277E79F2012704FB23F92F7CC6
:102E300081F200B3102714FB24F92F7971F200C03E
:102E400010B3012704FB25F92F7359F200C000B31A
:102E5000102714FB26F9223040F200C010B30127DE
:102E600004FB27F9243028F64F77206810B30000C0
:102E7000F9CF10E41ABF002717C03B503195C31B90
:102E8000D04010E41ABF0881033CE9F00B34D9F0BC
:102E9000209113011981110F1213EDCF093641F161
:102EA0000D3211F0013E39F7009317013F914F9118
:102EB0001F910F912F91DF91CAB7C6FD51CFCF91CE
:102EC000CFBFCF91189520911701222379F310914C
:102ED0001601112311F5343012F1309316012093AD
:102EE0001801109112013BE0311B3093120117C001
:102EF0000091160101308CF40AE53091600034FD38
:102F000010C000936000C9E1D1E00FC02795A8F47C
:102F10005150A9F4220F0000F9CF4AE503C042ED59
:102F200001C0432FC4E1D0E032E011B31461949AA0
:102F300011BB02B320E414E15F93012756E002BB0A
:102F4000279520F4515021F4220FF9CF012756E0A4
:102F500000003B5A02BBD0F2279528F4515029F4C7
:102F6000220F0000F9CF012756E0279502BB20F47D
:102F7000515021F4220FF9CF012756E02991332334
:102F800002BB21F60B7E10911401110FC651D040E7
:102F900002BB11F01093130110E41ABF006111B3CA
:102FA0001B7E402F4B7E5F9100C000C002BB11BB57
:102FB00042BB7CCF0F920FB60F928F9389B78F7E53
:102FC00089BF78941F9211241DBC1CBC9F93AF93A2
:102FD000BF93CF93DF93C6E7D0E089919991A991F0
:102FE000B8810196A11DB11DC6E7D0E089939993E0
:102FF000A993B883DF91CF91BF91AF919F911F901B
:1030000089B7806189BF8F910F900FBE0F9018957F
:103010005058BB27AA270ED070C161D130F066D1BD
:1030200020F031F49F3F11F41EF456C10EF4E095E8
:10303000E7FB4CC1E92F72D180F3BA17620773071F
:103040008407950718F071F49EF58AC10EF4E09597
:103050000B2EBA2FA02D0B01B90190010C01CA0152
:10306000A0011124FF27591B99F0593F50F4503EFD
:1030700068F11A16F040A22F232F342F4427585FEF
:10308000F3CF469537952795A795F0405395C9F707
:103090007EF41F16BA0B620B730B840BBAF09150BF
:1030A000A1F0FF0FBB1F661F771F881FC2F70EC05E
:1030B000BA0F621F731F841F48F487957795679531
:1030C000B795F7959E3F08F0B3CF9395880F08F01A
:1030D0009927EE0F979587950895D4D008F481E04D
:1030E00008950CD00AC102D140F0F9D030F021F49B
:1030F0005F3F19F0EBC0511134C1EEC00FD198F30E
:103100009923C9F35523B1F3951B550BBB27AA2768
:1031100062177307840738F09F5F5F4F220F331FDA
:10312000441FAA1FA9F333D00E2E3AF0E0E830D0A6
:1031300091505040E695001CCAF729D0FE2F27D0A9
:10314000660F771F881FBB1F261737074807AB0777
:10315000B0E809F0BB0B802DBF01FF2793585F4FEC
:103160002AF09E3F510568F0B1C0FBC05F3FECF311
:10317000983EDCF3869577956795B795F7959F5FB1
:10318000C9F7880F911D9695879597F90895E1E005
:10319000660F771F881FBB1F621773078407BA0764
:1031A00020F0621B730B840BBA0BEE1F88F7E095BF
:1031B0000895BCD088F09F5790F0B92F9927B75148
:1031C000A0F0D1F0660F771F881F991F1AF0BA95EB
:1031D000C9F712C0B13081F0C3D0B1E00895C0C0CA
:1031E000672F782F8827B85F39F0B93FCCF38695E1
:1031F00077956795B395D9F73EF49095809570953E
:1032000061957F4F8F4F9F4F0895E89409C097FBBA
:103210003EF490958095709561957F4F8F4F9F4FAD
:103220009923A9F0F92F96E9BB279395F6958795F1
:1032300077956795B795F111F8CFFAF4BB0F11F4B4
:1032400060FF1BC06F5F7F4F8F4F9F4F16C088235B
:1032500011F096E911C0772321F09EE8872F762F91
:1032600005C0662371F096E8862F70E060E02AF0D2
:103270009A95660F771F881FDAF7880F96958795BE
:1032800097F90895990F0008550FAA0BE0E8FEEF93
:1032900016161706E807F907C0F012161306E4071A
:1032A000F50798F0621B730B840B950B39F40A2613
:1032B00061F0232B242B252B21F408950A2609F4F1
:1032C000A140A6958FEF811D811D089597F99F67F5
:1032D00080E870E060E008959FEF80EC089500249E
:1032E0000A941616170618060906089500240A946B
:1032F00012161306140605060895092E0394000CF1
:1033000011F4882352F0BB0F40F4BF2B11F460FF7F
:1033100004C06F5F7F4F8F4F9F4F089557FD9058A8
:10332000440F551F59F05F3F71F04795880F97FB89
:10333000991F61F09F3F79F0879508951216130643
:103340001406551FF2CF4695F1DF08C01616170672
:103350001806991FF1CF86957105610508940895A7
:10336000E894BB2766277727CB0197F908958ADF72
:1033700008F48FEF08950BD0C0CFB1DF28F0B6DF8F
:1033800018F0952309F0A2CFA7CF1124EACFC6DF0A
:10339000A0F3959FD1F3950F50E0551F629FF00168
:1033A000729FBB27F00DB11D639FAA27F00DB11DC1
:1033B000AA1F649F6627B00DA11D661F829F22274A
:1033C000B00DA11D621F739FB00DA11D621F839FD1
:1033D000A00D611D221F749F3327A00D611D231FA7
:1033E000849F600D211D822F762F6A2F11249F57F5
:1033F00050408AF0E1F088234AF0EE0FFF1FBB1F18
:10340000661F771F881F91505040A9F79E3F5105B6
:1034100070F05CCFA6CF5F3FECF3983EDCF386956F
:1034200077956795B795F795E7959F5FC1F7FE2B61
:10343000880F911D9695879597F9089577DFE0F0AD
:103440009E37D8F09639B8F49E3848F4672F782F15
:103450008827985FF9CF86957795679593959539E5
:10346000D0F3B62FB1706B0F711D811D20F48795BD
:1034700077956795939502C01CC073CF882371F42C
:10348000772321F09850872B762F07C0662311F4FD
:1034900099270DC09051862B70E060E02AF09A9534
:1034A000660F771F881FDAF7880F9695879597F92B
:1034B00008959F3F31F0915020F487957795679557
:1034C000B795880F911D9695879597F90895629FF6
:1034D000D001739FF001829FE00DF11D649FE00D0C
:1034E000F11D929FF00D839FF00D749FF00D659F6D
:1034F000F00D9927729FB00DE11DF91F639FB00D6C
:10350000E11DF91FBD01CF0111240895AA1BBB1BAA
:1035100051E107C0AA1FBB1FA617B70710F0A61BD3
:10352000B70B881F991F5A95A9F780959095BC01F4
:10353000CD010895EE0FFF1F0590F491E02D099441
:10354000DC01CB01FC01E199FECF06C0FFBBEEBB65
:10355000E09A31960DB20D9241505040B8F708955F
:10356000E199FECF9FBB8EBBE09A99278DB308955A
:10357000A8E1B0E042E050E00C94A21ADC01A40FF4
:10358000B51F4150504048F0CB01840F951F2E913C
:103590000E94CF1A41505040D0F70895262FE1994C
:1035A000FECF9FBB8EBBE09A01970DB2021631F0A1
:1035B0002DBB0FB6F894E29AE19A0FBE08950196DA
:0E35C000272F0E94CF1A0C94CE1AF894FFCF3A
:1035CE005AFFA83FD300A1C8DA12813FA4A6D58026
:0635DE0020008D14AF0077
:00000001FF
